{"address":"0x0b80e3f7b9038Cc182b1F647F907eD8DB00aC0Ff","bytecode":"0x60806040526001600a556000601260006101000a81548160ff021916908360ff1602179055503480156200003257600080fd5b50604051620051cb380380620051cb833981810160405281019062000058919062000435565b6040518060400160405280600f81526020017f4c697175696469747920546f6b656e00000000000000000000000000000000008152506040518060400160405280600381526020017f4c505400000000000000000000000000000000000000000000000000000000008152508160039080519060200190620000dc9291906200036e565b508060049080519060200190620000f59291906200036e565b505050620001186200010c6200021860201b60201c565b6200022060201b60201c565b7f6661333830323365343461383462363338346339343131343031393034393937600e819055506200015082620002e660201b60201c565b62000161816200032a60201b60201c565b600a670de0b6b3a764000060016200017a9190620004d9565b620001869190620004a1565b600f8190555083600c60006101000a81548173ffffffffffffffffffffffffffffffffffffffff021916908373ffffffffffffffffffffffffffffffffffffffff16021790555082600d60006101000a81548173ffffffffffffffffffffffffffffffffffffffff021916908373ffffffffffffffffffffffffffffffffffffffff1602179055505050505062000655565b600033905090565b6000600560009054906101000a900473ffffffffffffffffffffffffffffffffffffffff16905081600560006101000a81548173ffffffffffffffffffffffffffffffffffffffff021916908373ffffffffffffffffffffffffffffffffffffffff1602179055508173ffffffffffffffffffffffffffffffffffffffff168173ffffffffffffffffffffffffffffffffffffffff167f8be0079c531659141344cd1fd0a4f28419497f9722a3daafe3b4186f6b6457e060405160405180910390a35050565b80600860006101000a81548173ffffffffffffffffffffffffffffffffffffffff021916908373ffffffffffffffffffffffffffffffffffffffff16021790555050565b80600960006101000a81548173ffffffffffffffffffffffffffffffffffffffff021916908373ffffffffffffffffffffffffffffffffffffffff16021790555050565b8280546200037c9062000578565b90600052602060002090601f016020900481019282620003a05760008555620003ec565b82601f10620003bb57805160ff1916838001178555620003ec565b82800160010185558215620003ec579182015b82811115620003eb578251825591602001919060010190620003ce565b5b509050620003fb9190620003ff565b5090565b5b808211156200041a57600081600090555060010162000400565b5090565b6000815190506200042f816200063b565b92915050565b600080600080608085870312156200044c57600080fd5b60006200045c878288016200041e565b94505060206200046f878288016200041e565b935050604062000482878288016200041e565b925050606062000495878288016200041e565b91505092959194509250565b6000620004ae826200056e565b9150620004bb836200056e565b925082620004ce57620004cd620005dd565b5b828204905092915050565b6000620004e6826200056e565b9150620004f3836200056e565b9250817fffffffffffffffffffffffffffffffffffffffffffffffffffffffffffffffff04831182151516156200052f576200052e620005ae565b5b828202905092915050565b600062000547826200054e565b9050919050565b600073ffffffffffffffffffffffffffffffffffffffff82169050919050565b6000819050919050565b600060028204905060018216806200059157607f821691505b60208210811415620005a857620005a76200060c565b5b50919050565b7f4e487b7100000000000000000000000000000000000000000000000000000000600052601160045260246000fd5b7f4e487b7100000000000000000000000000000000000000000000000000000000600052601260045260246000fd5b7f4e487b7100000000000000000000000000000000000000000000000000000000600052602260045260246000fd5b62000646816200053a565b81146200065257600080fd5b50565b614b6680620006656000396000f3fe6080604052600436106102085760003560e01c8063715018a611610118578063a9059cbb116100a0578063d1d6a2d61161006f578063d1d6a2d6146106a8578063d38d9639146106d3578063dd62ed3e146106fe578063f2fde38b1461073b578063fa4be622146107645761020f565b8063a9059cbb146105fe578063b3af31241461063b578063bdb337d114610666578063cd0a314b1461067d5761020f565b80638da5cb5b116100e75780638da5cb5b146105295780638dc654a21461055457806394b3886c1461056b57806395d89b4114610596578063a457c2d7146105c15761020f565b8063715018a6146104b4578063810074c6146104cb5780638b7afe2e146104d55780638cbd0e9c146105005761020f565b806337d36fef1161019b5780634795db521161016a5780634795db52146103f35780634a3afb471461041e57806367b9a286146104355780636db5fc9c1461044c57806370a08231146104775761020f565b806337d36fef1461034b57806339509351146103745780633a3af170146103b1578063422f8edf146103dc5761020f565b806329e8dbee116101d757806329e8dbee146102e15780632fa70b73146102eb578063313ce567146102f557806334a5462c146103205761020f565b806306fdde0314610211578063095ea7b31461023c57806318160ddd1461027957806323b872dd146102a45761020f565b3661020f57005b005b34801561021d57600080fd5b5061022661078f565b6040516102339190613d8d565b60405180910390f35b34801561024857600080fd5b50610263600480360381019061025e91906136de565b610821565b6040516102709190613d72565b60405180910390f35b34801561028557600080fd5b5061028e610844565b60405161029b9190613fcf565b60405180910390f35b3480156102b057600080fd5b506102cb60048036038101906102c6919061368f565b61084e565b6040516102d89190613d72565b60405180910390f35b6102e961087d565b005b6102f3610bde565b005b34801561030157600080fd5b5061030a610f3f565b604051610317919061408b565b60405180910390f35b34801561032c57600080fd5b50610335610f48565b604051610342919061408b565b60405180910390f35b34801561035757600080fd5b50610372600480360381019061036d9190613743565b610f5b565b005b34801561038057600080fd5b5061039b600480360381019061039691906136de565b611126565b6040516103a89190613d72565b60405180910390f35b3480156103bd57600080fd5b506103c661115d565b6040516103d39190613fcf565b60405180910390f35b3480156103e857600080fd5b506103f1611214565b005b3480156103ff57600080fd5b50610408611322565b6040516104159190613fcf565b60405180910390f35b34801561042a57600080fd5b506104336113d9565b005b34801561044157600080fd5b5061044a611561565b005b34801561045857600080fd5b506104616116d9565b60405161046e9190613fcf565b60405180910390f35b34801561048357600080fd5b5061049e6004803603810190610499919061362a565b6116df565b6040516104ab9190613fcf565b60405180910390f35b3480156104c057600080fd5b506104c9611727565b005b6104d361173b565b005b3480156104e157600080fd5b506104ea611844565b6040516104f79190613fcf565b60405180910390f35b34801561050c57600080fd5b5061052760048036038101906105229190613792565b61184c565b005b34801561053557600080fd5b5061053e6119bc565b60405161054b9190613bfd565b60405180910390f35b34801561056057600080fd5b506105696119e6565b005b34801561057757600080fd5b50610580611b51565b60405161058d9190613fcf565b60405180910390f35b3480156105a257600080fd5b506105ab611c08565b6040516105b89190613d8d565b60405180910390f35b3480156105cd57600080fd5b506105e860048036038101906105e391906136de565b611c9a565b6040516105f59190613d72565b60405180910390f35b34801561060a57600080fd5b50610625600480360381019061062091906136de565b611d11565b6040516106329190613d72565b60405180910390f35b34801561064757600080fd5b50610650611d34565b60405161065d9190613bfd565b60405180910390f35b34801561067257600080fd5b5061067b611d5a565b005b34801561068957600080fd5b50610692612479565b60405161069f9190613fcf565b60405180910390f35b3480156106b457600080fd5b506106bd612498565b6040516106ca9190613fcf565b60405180910390f35b3480156106df57600080fd5b506106e861254f565b6040516106f59190613fcf565b60405180910390f35b34801561070a57600080fd5b5061072560048036038101906107209190613653565b612555565b6040516107329190613fcf565b60405180910390f35b34801561074757600080fd5b50610762600480360381019061075d919061362a565b6125dc565b005b34801561077057600080fd5b50610779612660565b6040516107869190613bfd565b60405180910390f35b60606003805461079e9061447f565b80601f01602080910402602001604051908101604052809291908181526020018280546107ca9061447f565b80156108175780601f106107ec57610100808354040283529160200191610817565b820191906000526020600020905b8154815290600101906020018083116107fa57829003601f168201915b5050505050905090565b60008061082c612686565b905061083981858561268e565b600191505092915050565b6000600254905090565b600080610859612686565b9050610866858285612859565b6108718585856128e5565b60019150509392505050565b600034116108c0576040517f08c379a00000000000000000000000000000000000000000000000000000000081526004016108b790613f6f565b60405180910390fd5b6000346108cb611b51565b6108d5919061433b565b905060006108e161115d565b9050600c60009054906101000a900473ffffffffffffffffffffffffffffffffffffffff1673ffffffffffffffffffffffffffffffffffffffff166340c10f1933346040518363ffffffff1660e01b8152600401610940929190613c86565b600060405180830381600087803b15801561095a57600080fd5b505af115801561096e573d6000803e3d6000fd5b50505050600d60009054906101000a900473ffffffffffffffffffffffffffffffffffffffff1673ffffffffffffffffffffffffffffffffffffffff166340c10f1933346040518363ffffffff1660e01b81526004016109cf929190613c86565b600060405180830381600087803b1580156109e957600080fd5b505af11580156109fd573d6000803e3d6000fd5b50505050600c60009054906101000a900473ffffffffffffffffffffffffffffffffffffffff1673ffffffffffffffffffffffffffffffffffffffff166323b872dd3330346040518463ffffffff1660e01b8152600401610a6093929190613c4f565b602060405180830381600087803b158015610a7a57600080fd5b505af1158015610a8e573d6000803e3d6000fd5b505050506040513d601f19601f82011682018060405250810190610ab2919061371a565b5060003483610ac191906140e9565b8234610acd91906142e1565b610ad7919061413f565b9050600d60009054906101000a900473ffffffffffffffffffffffffffffffffffffffff1673ffffffffffffffffffffffffffffffffffffffff1663a9059cbb33836040518363ffffffff1660e01b8152600401610b36929190613c86565b602060405180830381600087803b158015610b5057600080fd5b505af1158015610b64573d6000803e3d6000fd5b505050506040513d601f19601f82011682018060405250810190610b88919061371a565b503373ffffffffffffffffffffffffffffffffffffffff167feff24ae1a526a59e44052f06c0e3fc3e2328bc71d8eaadc772a1a42ce563f3313483604051610bd192919061404f565b60405180910390a2505050565b60003411610c21576040517f08c379a0000000000000000000000000000000000000000000000000000000008152600401610c1890613f6f565b60405180910390fd5b600c60009054906101000a900473ffffffffffffffffffffffffffffffffffffffff1673ffffffffffffffffffffffffffffffffffffffff166340c10f1933346040518363ffffffff1660e01b8152600401610c7e929190613c86565b600060405180830381600087803b158015610c9857600080fd5b505af1158015610cac573d6000803e3d6000fd5b50505050600d60009054906101000a900473ffffffffffffffffffffffffffffffffffffffff1673ffffffffffffffffffffffffffffffffffffffff166340c10f1933346040518363ffffffff1660e01b8152600401610d0d929190613c86565b600060405180830381600087803b158015610d2757600080fd5b505af1158015610d3b573d6000803e3d6000fd5b505050506000610d49611b51565b9050600034610d5661115d565b610d60919061433b565b9050600d60009054906101000a900473ffffffffffffffffffffffffffffffffffffffff1673ffffffffffffffffffffffffffffffffffffffff166323b872dd3330346040518463ffffffff1660e01b8152600401610dc193929190613c4f565b602060405180830381600087803b158015610ddb57600080fd5b505af1158015610def573d6000803e3d6000fd5b505050506040513d601f19601f82011682018060405250810190610e13919061371a565b5060003482610e2291906140e9565b8334610e2e91906142e1565b610e38919061413f565b9050600c60009054906101000a900473ffffffffffffffffffffffffffffffffffffffff1673ffffffffffffffffffffffffffffffffffffffff1663a9059cbb33836040518363ffffffff1660e01b8152600401610e97929190613c86565b602060405180830381600087803b158015610eb157600080fd5b505af1158015610ec5573d6000803e3d6000fd5b505050506040513d601f19601f82011682018060405250810190610ee9919061371a565b503373ffffffffffffffffffffffffffffffffffffffff167feff24ae1a526a59e44052f06c0e3fc3e2328bc71d8eaadc772a1a42ce563f3313483604051610f32929190614013565b60405180910390a2505050565b60006012905090565b601260009054906101000a900460ff1681565b82600b600082815260200190815260200160002060009054906101000a900473ffffffffffffffffffffffffffffffffffffffff1673ffffffffffffffffffffffffffffffffffffffff163373ffffffffffffffffffffffffffffffffffffffff1614610ffd576040517f08c379a0000000000000000000000000000000000000000000000000000000008152600401610ff490613f4f565b60405180910390fd5b600b600082815260200190815260200160002060006101000a81549073ffffffffffffffffffffffffffffffffffffffff0219169055807f7cc135e0cebb02c3480ae5d74d377283180a2601f8f644edf7987b009316c63a60405160405180910390a2837f654e38d2a93112689c11f1c8b02342b0e0adab42ec9f0d00ea593cf9dd9ef8eb8484604051611092929190613fea565b60405180910390a2826010819055508160118190555060115460105411156110d5576001601260006101000a81548160ff021916908360ff160217905550611120565b6011546010541415611102576002601260006101000a81548160ff021916908360ff16021790555061111f565b6003601260006101000a81548160ff021916908360ff1602179055505b5b50505050565b600080611131612686565b90506111528185856111438589612555565b61114d91906140e9565b61268e565b600191505092915050565b600080600d60009054906101000a900473ffffffffffffffffffffffffffffffffffffffff1673ffffffffffffffffffffffffffffffffffffffff166370a08231306040518263ffffffff1660e01b81526004016111bb9190613bfd565b60206040518083038186803b1580156111d357600080fd5b505afa1580156111e7573d6000803e3d6000fd5b505050506040513d601f19601f8201168201806040525081019061120b91906137ce565b90508091505090565b61121c612b66565b600c60009054906101000a900473ffffffffffffffffffffffffffffffffffffffff1673ffffffffffffffffffffffffffffffffffffffff166398faf2cb6040518163ffffffff1660e01b8152600401600060405180830381600087803b15801561128657600080fd5b505af115801561129a573d6000803e3d6000fd5b50505050600d60009054906101000a900473ffffffffffffffffffffffffffffffffffffffff1673ffffffffffffffffffffffffffffffffffffffff166398faf2cb6040518163ffffffff1660e01b8152600401600060405180830381600087803b15801561130857600080fd5b505af115801561131c573d6000803e3d6000fd5b50505050565b600080600c60009054906101000a900473ffffffffffffffffffffffffffffffffffffffff1673ffffffffffffffffffffffffffffffffffffffff166370a08231336040518263ffffffff1660e01b81526004016113809190613bfd565b60206040518083038186803b15801561139857600080fd5b505afa1580156113ac573d6000803e3d6000fd5b505050506040513d601f19601f820116820180604052508101906113d091906137ce565b90508091505090565b60006113ef600e54306337d36fef60e01b612be4565b90506114536040518060400160405280600981526020017f75726c524553554c5400000000000000000000000000000000000000000000008152506040518060a00160405280606b8152602001614ac6606b913983612c159092919063ffffffff16565b6114d26040518060400160405280600881526020017f70617468484f4d450000000000000000000000000000000000000000000000008152506040518060400160405280600f81526020017f302c486f6d655465616d53636f7265000000000000000000000000000000000081525083612c159092919063ffffffff16565b6115516040518060400160405280600881526020017f70617468415741590000000000000000000000000000000000000000000000008152506040518060400160405280600f81526020017f302c417761795465616d53636f7265000000000000000000000000000000000081525083612c159092919063ffffffff16565b61155d81600f54612c48565b5050565b611569612b66565b600d60009054906101000a900473ffffffffffffffffffffffffffffffffffffffff1673ffffffffffffffffffffffffffffffffffffffff1663a9059cbb336115b061115d565b6040518363ffffffff1660e01b81526004016115cd929190613c86565b602060405180830381600087803b1580156115e757600080fd5b505af11580156115fb573d6000803e3d6000fd5b505050506040513d601f19601f8201168201806040525081019061161f919061371a565b50600c60009054906101000a900473ffffffffffffffffffffffffffffffffffffffff1673ffffffffffffffffffffffffffffffffffffffff1663a9059cbb33611667611b51565b6040518363ffffffff1660e01b8152600401611684929190613c86565b602060405180830381600087803b15801561169e57600080fd5b505af11580156116b2573d6000803e3d6000fd5b505050506040513d601f19601f820116820180604052508101906116d6919061371a565b50565b60105481565b60008060008373ffffffffffffffffffffffffffffffffffffffff1673ffffffffffffffffffffffffffffffffffffffff168152602001908152602001600020549050919050565b61172f612b66565b6117396000612c7f565b565b611743612b66565b600061174d612479565b141561178e576040517f08c379a000000000000000000000000000000000000000000000000000000000815260040161178590613eef565b60405180910390fd5b60003373ffffffffffffffffffffffffffffffffffffffff166117af612479565b6040516117bb90613be8565b60006040518083038185875af1925050503d80600081146117f8576040519150601f19603f3d011682016040523d82523d6000602084013e6117fd565b606091505b5050905080611841576040517f08c379a000000000000000000000000000000000000000000000000000000000815260040161183890613f8f565b60405180910390fd5b50565b600047905090565b611854612b66565b600c60009054906101000a900473ffffffffffffffffffffffffffffffffffffffff1673ffffffffffffffffffffffffffffffffffffffff166323b872dd3330856040518463ffffffff1660e01b81526004016118b393929190613c18565b602060405180830381600087803b1580156118cd57600080fd5b505af11580156118e1573d6000803e3d6000fd5b505050506040513d601f19601f82011682018060405250810190611905919061371a565b50600d60009054906101000a900473ffffffffffffffffffffffffffffffffffffffff1673ffffffffffffffffffffffffffffffffffffffff166323b872dd3330846040518463ffffffff1660e01b815260040161196593929190613c18565b602060405180830381600087803b15801561197f57600080fd5b505af1158015611993573d6000803e3d6000fd5b505050506040513d601f19601f820116820180604052508101906119b7919061371a565b505050565b6000600560009054906101000a900473ffffffffffffffffffffffffffffffffffffffff16905090565b6119ee612b66565b60006119f8612d45565b90508073ffffffffffffffffffffffffffffffffffffffff1663a9059cbb338373ffffffffffffffffffffffffffffffffffffffff166370a08231306040518263ffffffff1660e01b8152600401611a509190613bfd565b60206040518083038186803b158015611a6857600080fd5b505afa158015611a7c573d6000803e3d6000fd5b505050506040513d601f19601f82011682018060405250810190611aa091906137ce565b6040518363ffffffff1660e01b8152600401611abd929190613c86565b602060405180830381600087803b158015611ad757600080fd5b505af1158015611aeb573d6000803e3d6000fd5b505050506040513d601f19601f82011682018060405250810190611b0f919061371a565b611b4e576040517f08c379a0000000000000000000000000000000000000000000000000000000008152600401611b4590613eaf565b60405180910390fd5b50565b600080600c60009054906101000a900473ffffffffffffffffffffffffffffffffffffffff1673ffffffffffffffffffffffffffffffffffffffff166370a08231306040518263ffffffff1660e01b8152600401611baf9190613bfd565b60206040518083038186803b158015611bc757600080fd5b505afa158015611bdb573d6000803e3d6000fd5b505050506040513d601f19601f82011682018060405250810190611bff91906137ce565b90508091505090565b606060048054611c179061447f565b80601f0160208091040260200160405190810160405280929190818152602001828054611c439061447f565b8015611c905780601f10611c6557610100808354040283529160200191611c90565b820191906000526020600020905b815481529060010190602001808311611c7357829003601f168201915b5050505050905090565b600080611ca5612686565b90506000611cb38286612555565b905083811015611cf8576040517f08c379a0000000000000000000000000000000000000000000000000000000008152600401611cef90613faf565b60405180910390fd5b611d05828686840361268e565b60019250505092915050565b600080611d1c612686565b9050611d298185856128e5565b600191505092915050565b600d60009054906101000a900473ffffffffffffffffffffffffffffffffffffffff1681565b6000601260009054906101000a900460ff1660ff1611611daf576040517f08c379a0000000000000000000000000000000000000000000000000000000008152600401611da690613e8f565b60405180910390fd5b6000611db9611322565b90506000611dc5612498565b90506001601260009054906101000a900460ff1660ff161415611ff857600c60009054906101000a900473ffffffffffffffffffffffffffffffffffffffff1673ffffffffffffffffffffffffffffffffffffffff166323b872dd3330856040518463ffffffff1660e01b8152600401611e4193929190613c4f565b602060405180830381600087803b158015611e5b57600080fd5b505af1158015611e6f573d6000803e3d6000fd5b505050506040513d601f19601f82011682018060405250810190611e93919061371a565b50600d60009054906101000a900473ffffffffffffffffffffffffffffffffffffffff1673ffffffffffffffffffffffffffffffffffffffff166323b872dd3330846040518463ffffffff1660e01b8152600401611ef393929190613c4f565b602060405180830381600087803b158015611f0d57600080fd5b505af1158015611f21573d6000803e3d6000fd5b505050506040513d601f19601f82011682018060405250810190611f45919061371a565b5060003373ffffffffffffffffffffffffffffffffffffffff1683604051611f6c90613be8565b60006040518083038185875af1925050503d8060008114611fa9576040519150601f19603f3d011682016040523d82523d6000602084013e611fae565b606091505b5050905080611ff2576040517f08c379a0000000000000000000000000000000000000000000000000000000008152600401611fe990613e6f565b60405180910390fd5b50612475565b6003601260009054906101000a900460ff1660ff16141561222957600d60009054906101000a900473ffffffffffffffffffffffffffffffffffffffff1673ffffffffffffffffffffffffffffffffffffffff166323b872dd3330846040518463ffffffff1660e01b815260040161207293929190613c4f565b602060405180830381600087803b15801561208c57600080fd5b505af11580156120a0573d6000803e3d6000fd5b505050506040513d601f19601f820116820180604052508101906120c4919061371a565b50600c60009054906101000a900473ffffffffffffffffffffffffffffffffffffffff1673ffffffffffffffffffffffffffffffffffffffff166323b872dd3330856040518463ffffffff1660e01b815260040161212493929190613c4f565b602060405180830381600087803b15801561213e57600080fd5b505af1158015612152573d6000803e3d6000fd5b505050506040513d601f19601f82011682018060405250810190612176919061371a565b5060003373ffffffffffffffffffffffffffffffffffffffff168260405161219d90613be8565b60006040518083038185875af1925050503d80600081146121da576040519150601f19603f3d011682016040523d82523d6000602084013e6121df565b606091505b5050905080612223576040517f08c379a000000000000000000000000000000000000000000000000000000000815260040161221a90613e6f565b60405180910390fd5b50612474565b6002601260009054906101000a900460ff1660ff161415612473576000828261225291906140e9565b9050600c60009054906101000a900473ffffffffffffffffffffffffffffffffffffffff1673ffffffffffffffffffffffffffffffffffffffff166323b872dd3330866040518463ffffffff1660e01b81526004016122b393929190613c4f565b602060405180830381600087803b1580156122cd57600080fd5b505af11580156122e1573d6000803e3d6000fd5b505050506040513d601f19601f82011682018060405250810190612305919061371a565b50600d60009054906101000a900473ffffffffffffffffffffffffffffffffffffffff1673ffffffffffffffffffffffffffffffffffffffff166323b872dd3330856040518463ffffffff1660e01b815260040161236593929190613c4f565b602060405180830381600087803b15801561237f57600080fd5b505af1158015612393573d6000803e3d6000fd5b505050506040513d601f19601f820116820180604052508101906123b7919061371a565b5060003373ffffffffffffffffffffffffffffffffffffffff166002836123de919061413f565b6040516123ea90613be8565b60006040518083038185875af1925050503d8060008114612427576040519150601f19603f3d011682016040523d82523d6000602084013e61242c565b606091505b5050905080612470576040517f08c379a000000000000000000000000000000000000000000000000000000000815260040161246790613e6f565b60405180910390fd5b50505b5b5b5050565b60003373ffffffffffffffffffffffffffffffffffffffff1631905090565b600080600d60009054906101000a900473ffffffffffffffffffffffffffffffffffffffff1673ffffffffffffffffffffffffffffffffffffffff166370a08231336040518263ffffffff1660e01b81526004016124f69190613bfd565b60206040518083038186803b15801561250e57600080fd5b505afa158015612522573d6000803e3d6000fd5b505050506040513d601f19601f8201168201806040525081019061254691906137ce565b90508091505090565b60115481565b6000600160008473ffffffffffffffffffffffffffffffffffffffff1673ffffffffffffffffffffffffffffffffffffffff16815260200190815260200160002060008373ffffffffffffffffffffffffffffffffffffffff1673ffffffffffffffffffffffffffffffffffffffff16815260200190815260200160002054905092915050565b6125e4612b66565b600073ffffffffffffffffffffffffffffffffffffffff168173ffffffffffffffffffffffffffffffffffffffff161415612654576040517f08c379a000000000000000000000000000000000000000000000000000000000815260040161264b90613dcf565b60405180910390fd5b61265d81612c7f565b50565b600c60009054906101000a900473ffffffffffffffffffffffffffffffffffffffff1681565b600033905090565b600073ffffffffffffffffffffffffffffffffffffffff168373ffffffffffffffffffffffffffffffffffffffff1614156126fe576040517f08c379a00000000000000000000000000000000000000000000000000000000081526004016126f590613f2f565b60405180910390fd5b600073ffffffffffffffffffffffffffffffffffffffff168273ffffffffffffffffffffffffffffffffffffffff16141561276e576040517f08c379a000000000000000000000000000000000000000000000000000000000815260040161276590613def565b60405180910390fd5b80600160008573ffffffffffffffffffffffffffffffffffffffff1673ffffffffffffffffffffffffffffffffffffffff16815260200190815260200160002060008473ffffffffffffffffffffffffffffffffffffffff1673ffffffffffffffffffffffffffffffffffffffff168152602001908152602001600020819055508173ffffffffffffffffffffffffffffffffffffffff168373ffffffffffffffffffffffffffffffffffffffff167f8c5be1e5ebec7d5bd14f71427d1e84f3dd0314c0f7b2291e5b200ac8c7c3b9258360405161284c9190613fcf565b60405180910390a3505050565b60006128658484612555565b90507fffffffffffffffffffffffffffffffffffffffffffffffffffffffffffffffff81146128df57818110156128d1576040517f08c379a00000000000000000000000000000000000000000000000000000000081526004016128c890613e2f565b60405180910390fd5b6128de848484840361268e565b5b50505050565b600073ffffffffffffffffffffffffffffffffffffffff168373ffffffffffffffffffffffffffffffffffffffff161415612955576040517f08c379a000000000000000000000000000000000000000000000000000000000815260040161294c90613f0f565b60405180910390fd5b600073ffffffffffffffffffffffffffffffffffffffff168273ffffffffffffffffffffffffffffffffffffffff1614156129c5576040517f08c379a00000000000000000000000000000000000000000000000000000000081526004016129bc90613daf565b60405180910390fd5b6129d0838383612d6f565b60008060008573ffffffffffffffffffffffffffffffffffffffff1673ffffffffffffffffffffffffffffffffffffffff16815260200190815260200160002054905081811015612a56576040517f08c379a0000000000000000000000000000000000000000000000000000000008152600401612a4d90613e4f565b60405180910390fd5b8181036000808673ffffffffffffffffffffffffffffffffffffffff1673ffffffffffffffffffffffffffffffffffffffff16815260200190815260200160002081905550816000808573ffffffffffffffffffffffffffffffffffffffff1673ffffffffffffffffffffffffffffffffffffffff1681526020019081526020016000206000828254612ae991906140e9565b925050819055508273ffffffffffffffffffffffffffffffffffffffff168473ffffffffffffffffffffffffffffffffffffffff167fddf252ad1be2c89b69c2b068fc378daa952ba7f163c4a11628f55a4df523b3ef84604051612b4d9190613fcf565b60405180910390a3612b60848484612d74565b50505050565b612b6e612686565b73ffffffffffffffffffffffffffffffffffffffff16612b8c6119bc565b73ffffffffffffffffffffffffffffffffffffffff1614612be2576040517f08c379a0000000000000000000000000000000000000000000000000000000008152600401612bd990613ecf565b60405180910390fd5b565b612bec613525565b612bf4613525565b612c0b85858584612d79909392919063ffffffff16565b9150509392505050565b612c2c828460800151612e2990919063ffffffff16565b612c43818460800151612e2990919063ffffffff16565b505050565b6000612c77600960009054906101000a900473ffffffffffffffffffffffffffffffffffffffff168484612e4e565b905092915050565b6000600560009054906101000a900473ffffffffffffffffffffffffffffffffffffffff16905081600560006101000a81548173ffffffffffffffffffffffffffffffffffffffff021916908373ffffffffffffffffffffffffffffffffffffffff1602179055508173ffffffffffffffffffffffffffffffffffffffff168173ffffffffffffffffffffffffffffffffffffffff167f8be0079c531659141344cd1fd0a4f28419497f9722a3daafe3b4186f6b6457e060405160405180910390a35050565b6000600860009054906101000a900473ffffffffffffffffffffffffffffffffffffffff16905090565b505050565b505050565b612d81613525565b612d918560800151610100612f1a565b508385600001818152505082856020019073ffffffffffffffffffffffffffffffffffffffff16908173ffffffffffffffffffffffffffffffffffffffff16815250508185604001907bffffffffffffffffffffffffffffffffffffffffffffffffffffffff191690817bffffffffffffffffffffffffffffffffffffffffffffffffffffffff191681525050849050949350505050565b612e368260038351612f84565b612e49818361310990919063ffffffff16565b505050565b600080600a549050600181612e6391906140e9565b600a819055506000634042994660e01b60008087600001513089604001518760018c6080015160000151604051602401612ea4989796959493929190613caf565b604051602081830303815290604052907bffffffffffffffffffffffffffffffffffffffffffffffffffffffff19166020820180517bffffffffffffffffffffffffffffffffffffffffffffffffffffffff83818316178352505050509050612f0f8683868461312b565b925050509392505050565b612f22613592565b6000602083612f3191906144df565b14612f5d57602082612f4391906144df565b6020612f4f919061433b565b82612f5a91906140e9565b91505b81836020018181525050604051808452600081528281016020016040525082905092915050565b60178167ffffffffffffffff1611612fbb57612fb58160058460ff16901b60ff1617846132cf90919063ffffffff16565b50613104565b60ff8167ffffffffffffffff161161301157612fea601860058460ff16901b17846132cf90919063ffffffff16565b5061300b8167ffffffffffffffff166001856132ef9092919063ffffffff16565b50613103565b61ffff8167ffffffffffffffff161161306857613041601960058460ff16901b17846132cf90919063ffffffff16565b506130628167ffffffffffffffff166002856132ef9092919063ffffffff16565b50613102565b63ffffffff8167ffffffffffffffff16116130c15761309a601a60058460ff16901b17846132cf90919063ffffffff16565b506130bb8167ffffffffffffffff166004856132ef9092919063ffffffff16565b50613101565b6130de601b60058460ff16901b17846132cf90919063ffffffff16565b506130ff8167ffffffffffffffff166008856132ef9092919063ffffffff16565b505b5b5b5b505050565b613111613592565b61312383846000015151848551613311565b905092915050565b60003084604051602001613140929190613bbc565b60405160208183030381529060405280519060200120905084600b600083815260200190815260200160002060006101000a81548173ffffffffffffffffffffffffffffffffffffffff021916908373ffffffffffffffffffffffffffffffffffffffff160217905550807fb5e6e01e79f91267dc17b4e6314d5d4d03593d2ceee0fbb452b750bd70ea5af960405160405180910390a2600860009054906101000a900473ffffffffffffffffffffffffffffffffffffffff1673ffffffffffffffffffffffffffffffffffffffff16634000aea08685856040518463ffffffff1660e01b815260040161323693929190613d34565b602060405180830381600087803b15801561325057600080fd5b505af1158015613264573d6000803e3d6000fd5b505050506040513d601f19601f82011682018060405250810190613288919061371a565b6132c7576040517f08c379a00000000000000000000000000000000000000000000000000000000081526004016132be90613e0f565b60405180910390fd5b949350505050565b6132d7613592565b6132e78384600001515184613400565b905092915050565b6132f7613592565b613308848560000151518585613457565b90509392505050565b613319613592565b825182111561332757600080fd5b8460200151828561333891906140e9565b111561336d5761336c85600261335d8860200151888761335891906140e9565b6134e5565b61336791906142e1565b613501565b5b60008086518051876020830101935080888701111561338c5787860182525b60208701925050505b602084106133d357805182526020826133ae91906140e9565b91506020816133bd91906140e9565b90506020846133cc919061433b565b9350613395565b60006001856020036101000a03905080198251168184511681811785525050508692505050949350505050565b613408613592565b8360200151831061342e5761342d846002866020015161342891906142e1565b613501565b5b835180516020858301018481538186141561344a576001820183525b5050508390509392505050565b61345f613592565b8460200151848361347091906140e9565b111561349857613497856002868561348891906140e9565b61349291906142e1565b613501565b5b60006001836101006134aa91906141c3565b6134b4919061433b565b905085518386820101858319825116178152815185880111156134d75784870182525b505085915050949350505050565b6000818311156134f7578290506134fb565b8190505b92915050565b6000826000015190506135148383612f1a565b5061351f8382613109565b50505050565b6040518060a0016040528060008019168152602001600073ffffffffffffffffffffffffffffffffffffffff16815260200160007bffffffffffffffffffffffffffffffffffffffffffffffffffffffff191681526020016000815260200161358c613592565b81525090565b604051806040016040528060608152602001600081525090565b6000813590506135bb81614a52565b92915050565b6000815190506135d081614a69565b92915050565b6000813590506135e581614a80565b92915050565b6000813590506135fa81614a97565b92915050565b60008135905061360f81614aae565b92915050565b60008151905061362481614aae565b92915050565b60006020828403121561363c57600080fd5b600061364a848285016135ac565b91505092915050565b6000806040838503121561366657600080fd5b6000613674858286016135ac565b9250506020613685858286016135ac565b9150509250929050565b6000806000606084860312156136a457600080fd5b60006136b2868287016135ac565b93505060206136c3868287016135ac565b92505060406136d486828701613600565b9150509250925092565b600080604083850312156136f157600080fd5b60006136ff858286016135ac565b925050602061371085828601613600565b9150509250929050565b60006020828403121561372c57600080fd5b600061373a848285016135c1565b91505092915050565b60008060006060848603121561375857600080fd5b6000613766868287016135d6565b935050602061377786828701613600565b925050604061378886828701613600565b9150509250925092565b600080604083850312156137a557600080fd5b60006137b3858286016135eb565b92505060206137c4858286016135eb565b9150509250929050565b6000602082840312156137e057600080fd5b60006137ee84828501613615565b91505092915050565b6138008161436f565b82525050565b61380f81614381565b82525050565b61381e8161438d565b82525050565b61382d81614397565b82525050565b600061383e826140a6565b61384881856140bc565b935061385881856020860161444c565b6138618161459d565b840191505092915050565b61387d61387882614416565b6144b1565b82525050565b600061388e826140b1565b61389881856140d8565b93506138a881856020860161444c565b6138b18161459d565b840191505092915050565b60006138c96023836140d8565b91506138d4826145c8565b604082019050919050565b60006138ec6026836140d8565b91506138f782614617565b604082019050919050565b600061390f6022836140d8565b915061391a82614666565b604082019050919050565b60006139326013836140d8565b915061393d826146b5565b602082019050919050565b60006139556023836140d8565b9150613960826146de565b604082019050919050565b6000613978601d836140d8565b91506139838261472d565b602082019050919050565b600061399b6026836140d8565b91506139a682614756565b604082019050919050565b60006139be6014836140d8565b91506139c9826147a5565b602082019050919050565b60006139e1601b836140d8565b91506139ec826147ce565b602082019050919050565b6000613a046013836140d8565b9150613a0f826147f7565b602082019050919050565b6000613a276012836140d8565b9150613a3282614820565b602082019050919050565b6000613a4a6020836140d8565b9150613a5582614849565b602082019050919050565b6000613a6d6021836140d8565b9150613a7882614872565b604082019050919050565b6000613a906025836140d8565b9150613a9b826148c1565b604082019050919050565b6000613ab36000836140cd565b9150613abe82614910565b600082019050919050565b6000613ad66024836140d8565b9150613ae182614913565b604082019050919050565b6000613af96028836140d8565b9150613b0482614962565b604082019050919050565b6000613b1c601c836140d8565b9150613b27826149b1565b602082019050919050565b6000613b3f601a836140d8565b9150613b4a826149da565b602082019050919050565b6000613b626025836140d8565b9150613b6d82614a03565b604082019050919050565b613b818161443a565b82525050565b613b90816143ff565b82525050565b613ba7613ba2826143ff565b6144d5565b82525050565b613bb681614409565b82525050565b6000613bc8828561386c565b601482019150613bd88284613b96565b6020820191508190509392505050565b6000613bf382613aa6565b9150819050919050565b6000602082019050613c1260008301846137f7565b92915050565b6000606082019050613c2d60008301866137f7565b613c3a60208301856137f7565b613c476040830184613b78565b949350505050565b6000606082019050613c6460008301866137f7565b613c7160208301856137f7565b613c7e6040830184613b87565b949350505050565b6000604082019050613c9b60008301856137f7565b613ca86020830184613b87565b9392505050565b600061010082019050613cc5600083018b6137f7565b613cd2602083018a613b87565b613cdf6040830189613815565b613cec60608301886137f7565b613cf96080830187613824565b613d0660a0830186613b87565b613d1360c0830185613b87565b81810360e0830152613d258184613833565b90509998505050505050505050565b6000606082019050613d4960008301866137f7565b613d566020830185613b87565b8181036040830152613d688184613833565b9050949350505050565b6000602082019050613d876000830184613806565b92915050565b60006020820190508181036000830152613da78184613883565b905092915050565b60006020820190508181036000830152613dc8816138bc565b9050919050565b60006020820190508181036000830152613de8816138df565b9050919050565b60006020820190508181036000830152613e0881613902565b9050919050565b60006020820190508181036000830152613e2881613948565b9050919050565b60006020820190508181036000830152613e488161396b565b9050919050565b60006020820190508181036000830152613e688161398e565b9050919050565b60006020820190508181036000830152613e88816139b1565b9050919050565b60006020820190508181036000830152613ea8816139d4565b9050919050565b60006020820190508181036000830152613ec881613a1a565b9050919050565b60006020820190508181036000830152613ee881613a3d565b9050919050565b60006020820190508181036000830152613f0881613a60565b9050919050565b60006020820190508181036000830152613f2881613a83565b9050919050565b60006020820190508181036000830152613f4881613ac9565b9050919050565b60006020820190508181036000830152613f6881613aec565b9050919050565b60006020820190508181036000830152613f8881613b0f565b9050919050565b60006020820190508181036000830152613fa881613b32565b9050919050565b60006020820190508181036000830152613fc881613b55565b9050919050565b6000602082019050613fe46000830184613b87565b92915050565b6000604082019050613fff6000830185613b87565b61400c6020830184613b87565b9392505050565b60006060820190506140286000830185613b87565b6140356020830184613b87565b818103604083015261404681613925565b90509392505050565b60006060820190506140646000830185613b87565b6140716020830184613b87565b8181036040830152614082816139f7565b90509392505050565b60006020820190506140a06000830184613bad565b92915050565b600081519050919050565b600081519050919050565b600082825260208201905092915050565b600081905092915050565b600082825260208201905092915050565b60006140f4826143ff565b91506140ff836143ff565b9250827fffffffffffffffffffffffffffffffffffffffffffffffffffffffffffffffff0382111561413457614133614510565b5b828201905092915050565b600061414a826143ff565b9150614155836143ff565b9250826141655761416461453f565b5b828204905092915050565b6000808291508390505b60018511156141ba5780860481111561419657614195614510565b5b60018516156141a55780820291505b80810290506141b3856145bb565b945061417a565b94509492505050565b60006141ce826143ff565b91506141d9836143ff565b92506142067fffffffffffffffffffffffffffffffffffffffffffffffffffffffffffffffff848461420e565b905092915050565b60008261421e57600190506142da565b8161422c57600090506142da565b8160018114614242576002811461424c5761427b565b60019150506142da565b60ff84111561425e5761425d614510565b5b8360020a91508482111561427557614274614510565b5b506142da565b5060208310610133831016604e8410600b84101617156142b05782820a9050838111156142ab576142aa614510565b5b6142da565b6142bd8484846001614170565b925090508184048111156142d4576142d3614510565b5b81810290505b9392505050565b60006142ec826143ff565b91506142f7836143ff565b9250817fffffffffffffffffffffffffffffffffffffffffffffffffffffffffffffffff04831182151516156143305761432f614510565b5b828202905092915050565b6000614346826143ff565b9150614351836143ff565b92508282101561436457614363614510565b5b828203905092915050565b600061437a826143df565b9050919050565b60008115159050919050565b6000819050919050565b60007fffffffff0000000000000000000000000000000000000000000000000000000082169050919050565b60006fffffffffffffffffffffffffffffffff82169050919050565b600073ffffffffffffffffffffffffffffffffffffffff82169050919050565b6000819050919050565b600060ff82169050919050565b600061442182614428565b9050919050565b6000614433826143df565b9050919050565b6000614445826143c3565b9050919050565b60005b8381101561446a57808201518184015260208101905061444f565b83811115614479576000848401525b50505050565b6000600282049050600182168061449757607f821691505b602082108114156144ab576144aa61456e565b5b50919050565b60006144bc826144c3565b9050919050565b60006144ce826145ae565b9050919050565b6000819050919050565b60006144ea826143ff565b91506144f5836143ff565b9250826145055761450461453f565b5b828206905092915050565b7f4e487b7100000000000000000000000000000000000000000000000000000000600052601160045260246000fd5b7f4e487b7100000000000000000000000000000000000000000000000000000000600052601260045260246000fd5b7f4e487b7100000000000000000000000000000000000000000000000000000000600052602260045260246000fd5b6000601f19601f8301169050919050565b60008160601b9050919050565b60008160011c9050919050565b7f45524332303a207472616e7366657220746f20746865207a65726f206164647260008201527f6573730000000000000000000000000000000000000000000000000000000000602082015250565b7f4f776e61626c653a206e6577206f776e657220697320746865207a65726f206160008201527f6464726573730000000000000000000000000000000000000000000000000000602082015250565b7f45524332303a20617070726f766520746f20746865207a65726f20616464726560008201527f7373000000000000000000000000000000000000000000000000000000000000602082015250565b7f6465706f7369745f73776170425241746f465200000000000000000000000000600082015250565b7f756e61626c6520746f207472616e73666572416e6443616c6c20746f206f726160008201527f636c650000000000000000000000000000000000000000000000000000000000602082015250565b7f45524332303a20696e73756666696369656e7420616c6c6f77616e6365000000600082015250565b7f45524332303a207472616e7366657220616d6f756e742065786365656473206260008201527f616c616e63650000000000000000000000000000000000000000000000000000602082015250565b7f4661696c656420746f2073656e64204574686572000000000000000000000000600082015250565b7f546865206d61746368206973206e6f742066696e697368207965740000000000600082015250565b7f6465706f7369745f737761704652746f42524100000000000000000000000000600082015250565b7f556e61626c6520746f207472616e736665720000000000000000000000000000600082015250565b7f4f776e61626c653a2063616c6c6572206973206e6f7420746865206f776e6572600082015250565b7f5468657265206973206e6f204d6174696320696e2074686520436f6e7472616360008201527f7400000000000000000000000000000000000000000000000000000000000000602082015250565b7f45524332303a207472616e736665722066726f6d20746865207a65726f20616460008201527f6472657373000000000000000000000000000000000000000000000000000000602082015250565b50565b7f45524332303a20617070726f76652066726f6d20746865207a65726f2061646460008201527f7265737300000000000000000000000000000000000000000000000000000000602082015250565b7f536f75726365206d75737420626520746865206f7261636c65206f662074686560008201527f2072657175657374000000000000000000000000000000000000000000000000602082015250565b7f596f75206469646e27742070726f7669646520616e792066756e647300000000600082015250565b7f4661696c75726520436f75646e27742073656e64204d61746963000000000000600082015250565b7f45524332303a2064656372656173656420616c6c6f77616e63652062656c6f7760008201527f207a65726f000000000000000000000000000000000000000000000000000000602082015250565b614a5b8161436f565b8114614a6657600080fd5b50565b614a7281614381565b8114614a7d57600080fd5b50565b614a898161438d565b8114614a9457600080fd5b50565b614aa0816143c3565b8114614aab57600080fd5b50565b614ab7816143ff565b8114614ac257600080fd5b5056fe68747470733a2f2f6170692e73706f727473646174612e696f2f76332f736f636365722f73636f7265732f6a736f6e2f47616d65734279446174652f323032322d31312d31353f6b65793d6135616363366363343464633437666339393138313938643239623333653030a2646970667358221220a9399e94c2d1f5668d0ff44b69481be8e4454829d1873049a836ae94bf9e780464736f6c63430008040033","abi":[{"inputs":[{"internalType":"address","name":"_FranceTokenAddress","type":"address"},{"internalType":"address","name":"_BrasilTokenAddress","type":"address"},{"internalType":"address","name":"_LinkToken","type":"address"},{"internalType":"address","name":"_LinkOracle","type":"address"}],"stateMutability":"nonpayable","type":"constructor"},{"anonymous":false,"inputs":[{"indexed":true,"internalType":"address","name":"owner","type":"address"},{"indexed":true,"internalType":"address","name":"spender","type":"address"},{"indexed":false,"internalType":"uint256","name":"value","type":"uint256"}],"name":"Approval","type":"event"},{"anonymous":false,"inputs":[{"indexed":true,"internalType":"bytes32","name":"id","type":"bytes32"}],"name":"ChainlinkCancelled","type":"event"},{"anonymous":false,"inputs":[{"indexed":true,"internalType":"bytes32","name":"id","type":"bytes32"}],"name":"ChainlinkFulfilled","type":"event"},{"anonymous":false,"inputs":[{"indexed":true,"internalType":"bytes32","name":"id","type":"bytes32"}],"name":"ChainlinkRequested","type":"event"},{"anonymous":false,"inputs":[{"indexed":true,"internalType":"address","name":"userAddress","type":"address"},{"indexed":false,"internalType":"uint256","name":"amount","type":"uint256"},{"indexed":false,"internalType":"uint256","name":"tokenReceived","type":"uint256"},{"indexed":false,"internalType":"string","name":"functionName","type":"string"}],"name":"DepositMade","type":"event"},{"anonymous":false,"inputs":[{"indexed":true,"internalType":"address","name":"previousOwner","type":"address"},{"indexed":true,"internalType":"address","name":"newOwner","type":"address"}],"name":"OwnershipTransferred","type":"event"},{"anonymous":false,"inputs":[{"indexed":true,"internalType":"bytes32","name":"requestId","type":"bytes32"},{"indexed":false,"internalType":"uint256","name":"homeScore","type":"uint256"},{"indexed":false,"internalType":"uint256","name":"awayScore","type":"uint256"}],"name":"RequestMultipleFulfilled","type":"event"},{"anonymous":false,"inputs":[{"indexed":true,"internalType":"address","name":"from","type":"address"},{"indexed":true,"internalType":"address","name":"to","type":"address"},{"indexed":false,"internalType":"uint256","name":"value","type":"uint256"}],"name":"Transfer","type":"event"},{"anonymous":false,"inputs":[{"indexed":true,"internalType":"address","name":"userAddress","type":"address"},{"indexed":false,"internalType":"uint256","name":"amount_team1_wallet","type":"uint256"},{"indexed":false,"internalType":"uint256","name":"amount_team2_wallet","type":"uint256"}],"name":"UserInformation","type":"event"},{"stateMutability":"payable","type":"fallback"},{"inputs":[],"name":"BrasilTokenAddress","outputs":[{"internalType":"address","name":"","type":"address"}],"stateMutability":"view","type":"function"},{"inputs":[],"name":"FinalResult","outputs":[{"internalType":"uint8","name":"","type":"uint8"}],"stateMutability":"view","type":"function"},{"inputs":[],"name":"FranceTokenAddress","outputs":[{"internalType":"address","name":"","type":"address"}],"stateMutability":"view","type":"function"},{"inputs":[{"internalType":"uint128","name":"_amountTeamA","type":"uint128"},{"internalType":"uint128","name":"_amountTeamB","type":"uint128"}],"name":"addLiquidity","outputs":[],"stateMutability":"nonpayable","type":"function"},{"inputs":[{"internalType":"address","name":"owner","type":"address"},{"internalType":"address","name":"spender","type":"address"}],"name":"allowance","outputs":[{"internalType":"uint256","name":"","type":"uint256"}],"stateMutability":"view","type":"function"},{"inputs":[{"internalType":"address","name":"spender","type":"address"},{"internalType":"uint256","name":"amount","type":"uint256"}],"name":"approve","outputs":[{"internalType":"bool","name":"","type":"bool"}],"stateMutability":"nonpayable","type":"function"},{"inputs":[],"name":"awayScore","outputs":[{"internalType":"uint256","name":"","type":"uint256"}],"stateMutability":"view","type":"function"},{"inputs":[{"internalType":"address","name":"account","type":"address"}],"name":"balanceOf","outputs":[{"internalType":"uint256","name":"","type":"uint256"}],"stateMutability":"view","type":"function"},{"inputs":[],"name":"contractBalance","outputs":[{"internalType":"uint256","name":"","type":"uint256"}],"stateMutability":"view","type":"function"},{"inputs":[],"name":"decimals","outputs":[{"internalType":"uint8","name":"","type":"uint8"}],"stateMutability":"view","type":"function"},{"inputs":[{"internalType":"address","name":"spender","type":"address"},{"internalType":"uint256","name":"subtractedValue","type":"uint256"}],"name":"decreaseAllowance","outputs":[{"internalType":"bool","name":"","type":"bool"}],"stateMutability":"nonpayable","type":"function"},{"inputs":[],"name":"deposit_swapBRAtoFR","outputs":[],"stateMutability":"payable","type":"function"},{"inputs":[],"name":"deposit_swapFRtoBRA","outputs":[],"stateMutability":"payable","type":"function"},{"inputs":[{"internalType":"bytes32","name":"requestId","type":"bytes32"},{"internalType":"uint256","name":"homeResponse","type":"uint256"},{"internalType":"uint256","name":"awayResponse","type":"uint256"}],"name":"fulfillMultipleParameters","outputs":[],"stateMutability":"nonpayable","type":"function"},{"inputs":[],"name":"gameOver","outputs":[],"stateMutability":"nonpayable","type":"function"},{"inputs":[],"name":"getBalanceWalletBrasil","outputs":[{"internalType":"uint256","name":"","type":"uint256"}],"stateMutability":"view","type":"function"},{"inputs":[],"name":"getBalanceWalletFrance","outputs":[{"internalType":"uint256","name":"","type":"uint256"}],"stateMutability":"view","type":"function"},{"inputs":[],"name":"getReserveBrasil","outputs":[{"internalType":"uint256","name":"","type":"uint256"}],"stateMutability":"view","type":"function"},{"inputs":[],"name":"getReserveFrance","outputs":[{"internalType":"uint256","name":"","type":"uint256"}],"stateMutability":"view","type":"function"},{"inputs":[],"name":"homeScore","outputs":[{"internalType":"uint256","name":"","type":"uint256"}],"stateMutability":"view","type":"function"},{"inputs":[{"internalType":"address","name":"spender","type":"address"},{"internalType":"uint256","name":"addedValue","type":"uint256"}],"name":"increaseAllowance","outputs":[{"internalType":"bool","name":"","type":"bool"}],"stateMutability":"nonpayable","type":"function"},{"inputs":[],"name":"name","outputs":[{"internalType":"string","name":"","type":"string"}],"stateMutability":"view","type":"function"},{"inputs":[],"name":"ownTokenContracts","outputs":[],"stateMutability":"nonpayable","type":"function"},{"inputs":[],"name":"owner","outputs":[{"internalType":"address","name":"","type":"address"}],"stateMutability":"view","type":"function"},{"inputs":[],"name":"removeLiquidity","outputs":[],"stateMutability":"nonpayable","type":"function"},{"inputs":[],"name":"renounceOwnership","outputs":[],"stateMutability":"nonpayable","type":"function"},{"inputs":[],"name":"requestMultipleParameters","outputs":[],"stateMutability":"nonpayable","type":"function"},{"inputs":[],"name":"symbol","outputs":[{"internalType":"string","name":"","type":"string"}],"stateMutability":"view","type":"function"},{"inputs":[],"name":"totalSupply","outputs":[{"internalType":"uint256","name":"","type":"uint256"}],"stateMutability":"view","type":"function"},{"inputs":[{"internalType":"address","name":"to","type":"address"},{"internalType":"uint256","name":"amount","type":"uint256"}],"name":"transfer","outputs":[{"internalType":"bool","name":"","type":"bool"}],"stateMutability":"nonpayable","type":"function"},{"inputs":[{"internalType":"address","name":"from","type":"address"},{"internalType":"address","name":"to","type":"address"},{"internalType":"uint256","name":"amount","type":"uint256"}],"name":"transferFrom","outputs":[{"internalType":"bool","name":"","type":"bool"}],"stateMutability":"nonpayable","type":"function"},{"inputs":[{"internalType":"address","name":"newOwner","type":"address"}],"name":"transferOwnership","outputs":[],"stateMutability":"nonpayable","type":"function"},{"inputs":[],"name":"walletBalance","outputs":[{"internalType":"uint256","name":"","type":"uint256"}],"stateMutability":"view","type":"function"},{"inputs":[],"name":"withdrawLink","outputs":[],"stateMutability":"nonpayable","type":"function"},{"inputs":[],"name":"withdrawMatic","outputs":[],"stateMutability":"payable","type":"function"},{"stateMutability":"payable","type":"receive"}]}